:1000000000800020BD010000892200004122000084
:100010004122000041220000412200004122000054
:1000200041220000412200004122000089220000FC
:10003000892200004122000075190000791A000091
:100040008922000089220000892200008922000004
:1000500089220000892200008922000089220000F4
:1000600089220000892200008922000089220000E4
:1000700089220000892200008922000089220000D4
:1000800089220000892200008922000089220000C4
:1000900089220000892200008922000089220000B4
:1000A00089220000892200008922000089220000A4
:1000B0008922000089220000892200008922000094
:1000C0008922000089220000892200008922000084
:1000D0008922000089220000892200008922000074
:1000E0008922000089220000892200008922000064
:1000F00089220000513C0000892200007D3D000063
:1001000089220000A93E0000892200008922000007
:100110008922000089220000892200008922000033
:100120008922000089220000892200008922000023
:100130008922000089220000892200008922000013
:100140008922000089220000892200008922000003
:10015000651B0000791B00008D1B0000A11B000027
:1001600089220000D52A000089220000892200008F
:1001700089220000892200008922000089220000D3
:1001800089220000892200008922000089220000C3
:1001900089220000892200008922000089220000B3
:1001A00089220000892200008922000089220000A3
:1001B000892200008922000089220000564B4CF25F
:1001C000205210B51A804DF628121A8000BF00BFC9
:1001D00002F05EF8514B4FF010621A60504A9A607C
:1001E000504ADA60504A136813F4807304D14F49BF
:1001F0000B604FF4A85313604D4B1A78110703D5C9
:100200001A7842F008021A704A4B4B492A221A7097
:100210004A4A4B4B8B4204D252F8040F43F8040B6A
:10022000F8E7484B484900228B4202D243F8042B9E
:10023000FAE74649464A002352F8230041F82300D2
:1002400001336F2BF8D1434B434A802103F8011B44
:100250009342FBD1414B3D4A1A60414B8A221A70AE
:10026000A3F5805324225A70A0221A709A7992071B
:10027000FCD59A79D406FCD43A4A937903F00C035E
:10028000082B384BF9D105221A7143225A719A79F9
:100290009006FCD5334A9179324B4906FBD5324A58
:1002A0004FF0817111600521516020221A709A79F6
:1002B00002F00C020C2AFAD12C4B2D4A1A602D4B5D
:1002C0002D4A1A6000225A60072243F8042C2B4A58
:1002D000C3F80C2D62B602F0B3FA144B1B68DA07B0
:1002E00005D5274802F020FA264B274A1A60274BEB
:1002F0001B785B0609D5234C234B22689A4204D114
:100300001F4802F011FA0023236004F00BFF01F0F4
:10031000C5FF01F0F3FEFEE70E20054030800440EB
:10032000823F04000100002B10D0034014D0034092
:1003300002D0074000E00740E891FF1F58A70000E7
:100340002087FF1FE891FF1FAC96FF1F0082FF1F51
:100350000000000000E400E05FE400E008ED00E0E1
:1003600000500640004006404480044004800440A1
:10037000C010050014E000E03F190100000020203B
:10038000808B3F5D1CE00340A5C3945A00F00740FA
:10039000FFFFFFFFFFFFFFFFFFFFFFFFFFFFFFFF6D
:1003A000FFFFFFFFFFFFFFFFFFFFFFFFFFFFFFFF5D
:1003B000FFFFFFFFFFFFFFFFFFFFFFFFFFFFFFFF4D
:1003C000FFFFFFFFFFFFFFFFFFFFFFFFFFFFFFFF3D
:1003D000FFFFFFFFFFFFFFFFFFFFFFFFFFFFFFFF2D
:1003E000FFFFFFFFFFFFFFFFFFFFFFFFFFFFFFFF1D
:1003F000FFFFFFFFFFFFFFFFFFFFFFFFFFFFFFFF0D
:10040000FFFFFFFFFFFFFFFFFFFFFFFFDEF9FFFF23
:1004100010B5054C237833B9044B13B10448AFF33E
:1004200000800123237010BDE891FF1F0000000031
:1004300054A70000084B10B51BB108490848AFF39A
:1004400000800848036803B910BD074B002BFBD0A0
:10045000BDE81040184700BF00000000EC91FF1FEE
:1004600054A70000E891FF1F0000000010B4104BDB
:100470000179104A53F83110D37A012481F8804071
:100480008BB1DC07194603D50B4994690C601946FA
:100490009C0703D5094BD469D17A1C604B0702D560
:1004A000074B126A1A600023C37010BC704700BF6C
:1004B000F8A100003487FF1F00E100E004E100E044
:1004C00008E100E030B4204BDA7AEAB172B6DA7AA9
:1004D000D507114606D51D4CD96825682940996174
:1004E00021601146940706D5194C1A692568D97AF6
:1004F0002A40DA6122604A0705D516495A690C6814
:1005000022401A620A6062B61B68134AD968914297
:1005100006D0124D124C13491D60DA601C6119603F
:100520000279114B53F83220012382F80031C37055
:1005300000BF00BF00BF00BF00BF00BF00BF00BFC3
:1005400000BF30BC704700BF3487FF1F80E100E070
:1005500084E100E088E100E00100023E01403F004C
:100560000100027E00003F80F8A10000002383709C
:10057000704700BFF0B583B002AC04E90C00009BEB
:100580000A2B98BF174A04460D4698BF52F823001D
:10059000896A88BF4FF07E5004F0A8FB019B052BB1
:1005A00098BF114A0646B5F9580094BF52F8237017
:1005B0004FF07E5704F046FB314604F097FB206075
:1005C000B5F95A0004F03EFB314604F08FFB606041
:1005D000E86D04F033FB394604F088FBA060204648
:1005E00003B0F0BD50A000007CA0000038B5C37877
:1005F00005460C46002B2DD0184B1B6804F07F04D9
:100600004FF00042DA625C63DA6A002AFCDA4FF4E7
:100610001662996B013AFDD14FF000410022D96278
:100620005A63DA6A002AFCDA9C6BE4B200BF00BFAE
:1006300000BF00BF00BF00BF00BF00BF00BFEB781E
:1006400013B12846FFF712FF4FF4F073013BFDD1C1
:10065000204638BDFFF736FFCEE700BF3487FF1FC7
:1006600038B51B210446FFF7C1FF1A210546204675
:10067000FFF7BCFF0146284601F0EAFB034BA3FB52
:100680000030C0F30F10608438BD00BF1F85EB51F0
:1006900038B51D210446FFF7A9FF1C210546204659
:1006A000FFF7A4FF0146284601F0D2FB034BA3FB52
:1006B0000030C0F30F10A08438BD00BF1F85EB5180
:1006C000C37870B505460C46164613B3124B1B682B
:1006D00044F080044FF00042DA625C63D96A00297A
:1006E000FCDA4FF00042996BDA625E63DA6A002A44
:1006F000FCDA4FF4F0729B6B1346013BFDD1EB78B3
:1007000013B12846FFF7B2FE4FF43463013BFDD12D
:1007100070BDFFF7D7FED9E73487FF1F312910B529
:10072000044621DD42F208039942104AA8BF194647
:10073000A2FB0132C2F307120F212046FFF7C0FFD0
:100740000F212046FFF752FF00EB800000EB8000F6
:10075000400080B2208404F071FA01464FF07E50D0
:1007600004F078FBA06210BD0122E5E71F85EB5184
:1007700001EB810138B501EB81014C00A4B20546C3
:1007800004F0FE021A21FFF79BFF2846220A1B21D4
:10079000FFF796FF2846BDE83840FFF761BF00BF6E
:1007A0002DE9F047022284B081463921FFF788FF06
:1007B0001D2213214846FFF783FF0A2001F0F0FFB6
:1007C000484618221321FFF77BFF99F8033013B92D
:1007D0004846FFF777FEDFF890A0DAF800204FF0E8
:1007E0000041E223D1625363D36A002BFCDA936B9E
:1007F0001C4D012403214FF4B4784FF0004740F61C
:10080000FE364346013BFDD1D7625163D36A002BCC
:10081000FCDA022C936B16D0B44204D0013415F8E4
:10082000011FA4B2EDE7F023013BFDD199F803309D
:1008300013B14846FFF71AFE4FF47063013BFDD138
:1008400004B0BDE8F0871022684601F077FB6946E6
:1008500009F1100001F0D2FB684601F0FDFADAF868
:100860000020DBE7509400003487FF1F10B52021E3
:100870000446FFF7BBFE202100F0F0022046FFF700
:100880001FFF0120BDE8104001F08ABFC37810B5FA
:100890000446A3BBE37873B3E37813B12046FFF7B4
:1008A000E5FD5A223A212046FFF70AFF322001F0E7
:1008B00077FF02212046FFF799FE03212046FFF72C
:1008C00095FE04212046FFF791FE05212046FFF703
:1008D0008DFE06212046FFF789FE2046FFF760FFC8
:1008E0000A2001F05DFF2046FFF7C0FF0120BDE8B0
:1008F000104001F055BF2046FFF7E4FDCCE7FFF7BD
:10090000B5FDC7E710B5FF2204461421FFF7D8FE56
:100910002046FF221621FFF7D3FE2046FF22182192
:10092000BDE81040FFF7CCBE10B52E210446FFF7FE
:100930005DFE40F01F02D2B220462E21BDE81040DD
:10094000FFF7BEBE437810B50446D3B12378ABB9E8
:100950002046FFF79BFF218C2046FFF7DFFE618CCE
:100960002046FFF705FF2046FFF792FE2046FFF7DF
:10097000C9FF2046FFF7D8FF0123237001236370CE
:1009800010BD0121007901F0E1FE034800F04EFFA7
:10099000642001F005FFD9E73487FF1F10B5044B31
:1009A0000184B3FBF2F24284FFF7CCFF012010BDBB
:1009B00040420F00437870B50446002B37D0A3782F
:1009C0000BB10023A37072B6E37863B3194B1D68B3
:1009D0004FF000425023EA626B63EB6A002BFCDAB3
:1009E00004F140060E23324631461248AD6B00F04A
:1009F0005BFF01F0B1FE00236363A363E363236441
:100A00006364A364A4F84C3023656365A365E36560
:100A1000E378E062206313B12046FFF727FD01234E
:100A2000A37062B670BD2046FFF74CFDCEE7FFF71E
:100A300089FFC4E73487FF1FF8B58378044613B9EC
:100A400056E003F031F801F087FE236BA28CC01A48
:100A50008242F6D872B6E378002B45D0264B1D684B
:100A60004FF000425023EA626B63EB6A002BFCDA22
:100A700004F140020E2311461F48AD6B00F014FF35
:100A800001F06AFE256BE378451B13B12046FFF7A2
:100A9000EDFC236D0133236501F05EFE94F84220E6
:100AA00094F8443094F843C094F845E0616BE76BE8
:100AB000E66AE56542EA0C2C43EA0E2EA26B236B34
:100AC0000FFA8CFC0FFA8EFE2B44801B614472449B
:100AD0003D446065A4F858C06163A4F85AE0A2637D
:100AE0002363E56362B6F8BD2046FFF7EBFCB5E78C
:100AF000FFF760FFA7E700BF3487FF1F10B504466C
:100B0000103001F0A9F9204610BD00BF38B5054CE2
:100B1000A4F16005103C204601F09EF9AC42F9D1E9
:100B200038BD00BF6893FF1F10B5074C04F12000CB
:100B300001F092F904F1100001F08EF92046BDE8B1
:100B4000104001F089B900BF0892FF1F10B5054C95
:100B500004F1100001F080F92046BDE8104001F0DA
:100B60007BB900BF8093FF1F10B5044600F0D8FF8B
:100B7000204610BD10B50446006808B101F0A6FB80
:100B8000204610BD2DE9F04FA64CA74E236ADFF892
:100B9000BC923068A54D0122B5B083F80021D9F888
:100BA00000300193FFF748FF7068FFF745FFDFF85B
:100BB000A0E23168DEF8007095E80C00013706A865
:100BC000CEF80070FFF7D6FC069F7168DDF820A014
:100BD000079E95E80C0009A8FFF7CCFC0B9BDDF8FD
:100BE00024800A9D02933846002104F03BFA002835
:100BF00000F01581BB460021404604F033FA00287E
:100C000000F00A814146584603F068FF0021834600
:100C1000304604F027FA002800F0FA8003960021FD
:100C2000284604F01FFA002800F0EE800495804B5F
:100C300005931968084603F051FF0146584604F031
:100C4000F3F998B9059B04991B680398059303F081
:100C500045FF059B83461946184603F03FFF0146B2
:100C6000584604F0E1F9002800F0BC80DFF8C8B174
:100C70004FF07E51DBF8000003F030FFCBF80000AE
:100C80006C4BDBF8000019686B4B039304F0E0F940
:100C9000039B002840F0AD8018684FF0804104F0BD
:100CA000E1F938B1A26B012382F80031D4F8882031
:100CB00082F800310199DBF800B00CA80A2201F09B
:100CC00051F9394610A8032201F060F9314614A801
:100CD000032201F05BF9514618A8032201F056F9EE
:100CE00041461CA8032201F051F9294620A80322FD
:100CF00001F04CF9029924A8032201F047F90222DD
:100D0000594628A801F042F92CA84C4901F0E4F812
:100D10000CA930A801F0F4F830A82C2101F0C4F996
:100D200010A901F0ABF92C2101F0BEF914A901F0D2
:100D3000A5F92C2101F0B8F918A901F09FF92C218F
:100D400001F0B2F91CA901F099F92C2101F0ACF9DC
:100D500020A901F093F92C2101F0A6F924A901F0B2
:100D60008DF92C2101F0A0F928A901F087F92CA90F
:100D700001F084F90146324800F01CFF30A801F070
:100D80006BF82CA801F068F828A801F065F824A8F1
:100D900001F062F820A801F05FF81CA801F05CF8EF
:100DA00018A801F059F814A801F056F810A801F09D
:100DB00053F80CA801F050F8224B234A1B683093DB
:100DC000309B1168226A5B1A0125C9F80030284659
:100DD00082F8805001F0E4FC236A83F8005135B0BA
:100DE000BDE8F08FDFF850B04FF07E53CBF8003005
:100DF00046E7A16B012281F88020D4F888100020FA
:100E000081F88020186055E705F1004304930EE750
:100E100006F10043039302E708F10041F3E607F10E
:100E2000004BE8E6F8A100002887FF1F60A1000042
:100E30002487FF1FFC92FF1F3087FF1F94A0000034
:100E40008087FF1FD493FF1F6893FF1F0492FF1F2B
:100E50007C93FF1F00230E2210B58370044682602E
:100E600003704370C37041601946103001F034F8CC
:100E700001F072FCE06201F06FFC2063204610BDBF
:100E800038B54FF4C87001F08BFC274D274A28492C
:100E9000284C1378002BFCD00B78DB07F9D52B6896
:100EA00020681B1A0E2BF4D9234C244D0A2001F084
:100EB00077FC4FF4C87001F073FC4FF47A7240F67F
:100EC00048512068FFF76AFD1E2001F069FC4FF4CD
:100ED0007A7240F648516068FFF760FD1E2001F00D
:100EE0005FFC0121042001F031FC2B6A012483F80E
:100EF00000412146072001F029FCAB6B214683F815
:100F00000041112001F022FCD5F88830204683F8FA
:100F1000004101F045FC01E002F00CFC02F046FC4F
:100F20000028F9D138BD00BFD493FF1FB894FF1F2C
:100F3000D094FF1FA496FF1F2887FF1FF8A1000071
:100F40002DE9F047BD4E3378A8B013B128B0BDE805
:100F5000F08703F0FF0502F029FC0028F6DDB84C0D
:100F6000B84F4FF4FA7001F01BFC23680693DDF8CC
:100F7000188008E023680593059BBA68C8EB030353
:100F8000934280F099811BABC5F13201581902F0F0
:100F90001BFC0544312DAB49ECD9AB49AB4DAC4FF3
:100FA0001BA805F079FF04F09DF8804689460020D3
:100FB000A54905F071FF04F095F803F039FDA24949
:100FC0008246002005F068FF04F08CF8CDE90201AC
:100FD0004946404603F02CFD9E49DFF8D482DFF8F5
:100FE000D49203F083FE9C4903F080FE514603F047
:100FF00031FF03F0F9F903F00BF803F0F9FC0346B5
:101000002B60DDE9020103F013FD934903F06EFE4E
:10101000514603F01FFF03F0E7F902F0F9FF03F078
:1010200007FD8E4B02461A602968864800230A2273
:1010300000F0F6FD834800F0E3FD504603F0D4F9DC
:101040004FF0020E02460B46CDF800E07D4800F05E
:1010500027FE7C4800F0D4FD814907A800F03CFF42
:1010600080490BA800F038FF7F490FA800F034FF3B
:101070000FA913A800F044FF2C2113A801F014F8C5
:101080007A4900F0FBFF7A4901F000F807A900F067
:10109000F5FF784900F0FAFF2C2101F005F87649B8
:1010A00000F0ECFF724900F0F1FF07A900F0E6FF45
:1010B000704900F0EBFF2C2100F0F6FF6F4900F0C3
:1010C000DDFF6B4900F0E2FF0BA900F0D7FF694993
:1010D00000F0DCFF2C2100F0E7FF694900F0CEFFB3
:1010E000634900F0D3FF07A900F0C8FF614900F091
:1010F000CDFF2C2100F0D8FF624900F0BFFF5C4912
:1011000000F0C4FF07A900F0B9FF5A4900F0BEFF84
:101110002C2100F0C9FF5C4900F0B0FF544900F0F9
:10112000B5FF0BA900F0AAFF524900F0AFFF2C2138
:1011300000F0BAFF554900F0A9FF014617A800F0DA
:10114000DFFE17A93F4800F035FD17A800F084FE28
:1011500013A800F081FE0FA800F07EFE0BA800F09F
:101160007BFE07A800F078FE3868FFF723FC78685C
:10117000FFF720FC3868FFF75FFC7868FFF75CFC3E
:101180004FF0010C86F800C023681393DDF84CE0A3
:1011900023681793179A3E49D8F820303D4CCEEB80
:1011A00002020A600022C9F800202B49C4F800E0BE
:1011B000504683F880C003F099FD0021044603F0F7
:1011C0003DFF20B93449204603F04CFF20B3D9F845
:1011D00000202B689A42FAD3304800F0A1FC304B33
:1011E000D8F820102F4A386800241C70012381F899
:1011F0000031D8F8381081F80031D8F888501168DB
:1012000085F800315160FFF7B1F97868FFF7AEF962
:10121000347028B0BDE8F0872349204603F066FD0E
:101220004FF07C5103F058FC03F03CFF2328CED94B
:1012300002461E49194800F029FCC8E7B493FF1F75
:10124000D493FF1F8087FF1FC4A000003892FF1FA8
:101250002887FF1F0000704200007A44FC92FF1FA5
:10126000C8A00000CCA00000D0A000000893FF1F81
:10127000E0A00000E4A000001893FF1F2893FF1FC8
:101280003893FF1F4893FF1F5893FF1FE8A00000EB
:101290000492FF1F6893FF1F398EE34CAC93FF1F2E
:1012A0000093FF1FA093FF1F00001042850B00005A
:1012B000F8A100007C93FF1F01230B736DE600BFB4
:1012C0002DE9F04F6F4F704C7049714E714DDFF842
:1012D00014B285B007F11008384600F0FDFD404615
:1012E0006D4900F0F9FD22466C49002002F08AFEAB
:1012F00006F1100A30466A4900F0EEFD06F12009B9
:101300005046684900F0E8FD4846674900F0E4FDB2
:1013100022466649002002F075FE3946684600F014
:10132000EFFD68465F2100F0BFFE314600F0A6FEEB
:101330000146284600F0E4FD684600F08DFD394680
:10134000684600F0DDFD68465F2100F0ADFE5146C5
:1013500000F094FE014605F1100000F0D1FD684652
:1013600000F07AFD3946684600F0CAFD68465F2104
:1013700000F09AFE494600F081FE014605F120008A
:1013800000F0BEFD684600F067FD4146684600F08B
:10139000B7FD68465F2100F087FE314600F06EFE23
:1013A000014605F1300000F0ABFD684600F054FD49
:1013B0004146684600F0A4FD68465F2100F074FED7
:1013C000514600F05BFE014605F1400000F098FD3B
:1013D000684600F041FD4146684600F091FD6846D0
:1013E0005F2100F061FE494600F048FE014605F12C
:1013F000500000F085FD684600F02EFD22462C4985
:101400002C4F2D4E2D4D002002F0FCFD58462C494E
:1014100000F062FD224658462A4902F0F3FD3846A4
:101420001421FFF717FD22463146384602F0EAFD47
:1014300028461521FFF70EFD22463146284602F0C8
:10144000E1FD214B214900252246802618461E71C8
:101450001D6002F0D7FD1E4A1E4B12680092009AD2
:101460001A6001F079F91C4B1C4A1D4910601D607F
:10147000224618465D609D6002F0C4FD05B0BDE8DF
:10148000F08F00BF8093FF1F2087FF1FF8A0000090
:101490000892FF1F0893FF1F00A100004D0B0000E2
:1014A00008A100000CA1000010A10000290B000001
:1014B0000D0B00003C92FF1FFD0A00009C92FF1FD5
:1014C00014A10000591E0000AC93FF1F690B00001F
:1014D000D493FF1F6893FF1FA093FF1F0493FF1F68
:1014E000750B00006C93FF1F10B4047F4160022C49
:1014F000C26002D010BC00F0DBB9836810BC184792
:101500002DE9F0410468E56815F0807F794D25608C
:1015100052D1DF0740F1B380002900F0E3800D785D
:10152000012B18BF45F000456563013190F8248018
:1015300003F1FF3C48EA0828BCF1000F00F0A88046
:1015400021B14D7811F8028B45EA082845682E7ABA
:10155000BCF1020F06F1FF364FEA06360CBF48F029
:10156000805548F01045B6B26563ACF1020C08E056
:101570000AB114700132013B05F47045B54216D929
:101580000468E56A15F0F00FF6D0A46B13F0010FB4
:1015900017464FEA242EEBD11AB107F802EB54702C
:1015A0003A4605F47045B542A3F10203E8D8BCF110
:1015B000000F6DD00468C3E7DD074CD5002900F0AB
:1015C00089800D78012B18BF45F000456563013116
:1015D00003F1FF3E90F824C0BEF1000F41D029B1C5
:1015E00091F801C00D78023145EA0C2C45682E7A3D
:1015F000BEF1020F06F1FF364FEA06360CBF4CF083
:1016000080554CF01045B6B26563AEF1020E08E0AD
:101610000AB114700132013B05F47045B54215D989
:101620000468E56A15F0F00FF6D013F0010F1746C5
:10163000A46BEDD122B107F8024B241254703A4644
:1016400005F47045B542A3F10203E9D8BEF1000FDD
:1016500007D00468C3E79E4690F824C0BEF1000F8F
:10166000BDD11BB30468E16A11F0F00FFBD0A16B90
:10167000DC071DD50AB111700132013BF1E790F88A
:1016800024809C4648EA0828BCF1000F7FF458AF3C
:1016900063B10468E16A11F0F00FFBD0DE07A16BC3
:1016A0000FD50AB111700132013BF1E7BDE8F081BD
:1016B0002AB114460D1204F8021B55702246023B53
:1016C000CFE72AB114460D1204F8025B517022468E
:1016D000023BDDE790F82450012B18BF45F0004590
:1016E000656375E790F82450012B18BF45F000455D
:1016F00065631BE700041F80F0B4464B464A186B35
:10170000DC6A01791170454922790A709A6A007978
:101710000870002A46D05968C9688A423ED82168B4
:10172000CC8B240402F1FF3065D4C0F30E00C883D3
:10173000C88B80B2C882196B0968C88B000452D468
:10174000C2F30E00C883C88B002480B212F1FF32AE
:10175000C88218BF01229C62D96A2E4809680D68A8
:1017600000F12404A54236D00068C46814F0804F0C
:101770000C680D6815BF248824780235013544F0C3
:1017800000440D604463196B254B09791970214998
:1017900012B1CA6A12791A70F0BC7047521A9A6272
:1017A0000122D9E7586B196805681E4C0A63CC62A0
:1017B000CC682D681C4E24F080440327B542CC60D1
:1017C00083F825701FD1037F4260022BC2601ED0B8
:1017D000F0BC00F06DB8016890F82400CC6840F0CF
:1017E00000404863CFE7CC8BC2F3080004F47E448A
:1017F0002043C883A7E7CC8BC0F3080004F47E44E1
:101800002043C88394E72B461146F0BC18478368F1
:10181000F0BC18473487FF1F1F8000401C80004029
:101820001B80004000000FFFE914000090E80C004E
:10183000F0B41C6859682568164F174E294321607B
:10184000164D17491760D66015611160417A154A27
:101850005C180A3194F8244053F8215002EBC4017B
:1018600049680D60017A5C1803EB8101247ECD6923
:1018700002EBC40149680D60817A581803EB8103BB
:1018800090F83000596B02EBC002F0BC536819604D
:10189000704700BF01401F000110003801100078A0
:1018A00000001F80F8A100000BB1FFF729BE7047B0
:1018B00010B4EFF3108272B6437F33B9017F012970
:1018C00007D003290FD00123437702B962B610BCB9
:1018D0007047124C2168A1B1114943610B688361C3
:1018E00008605861EFE70F4C216881B10E494361F0
:1018F0000B688361086058610C4B4FF08051196090
:10190000E1E7074B4161816120601860DBE7064B2E
:101910004161816120601860EEE700BFC893FF1F3E
:10192000C493FF1FB893FF1FBC93FF1F04ED00E09B
:1019300070B5EFF3108272B60C4C206880B10C4E7B
:1019400000254369236073B19D6102B962B6457792
:1019500083689847EFF3108272B620680028F0D1B0
:1019600002B962B670BD3360EFE700BFB893FF1FE6
:10197000BC93FF1FFFF7DCBF184A30B41468002C7B
:1019800027D0036821688B420ED2CB1A00218460D5
:10199000C1602360E06010600223037530BC7047B3
:1019A00011688B42144608D3A2685B1A0360002AB0
:1019B000F6D18260C460A060EEE7D268C260846045
:1019C000E060C568CB1A0222A8602360027530BCB3
:1019D00070478460C4601060DEE700BFC093FF1FE3
:1019E000F8B5224E34682CB32368002B3AD1204F2F
:1019F0001D4604E03468ECB12368002B32D1A368A3
:101A000003B1DD6020693360036825751B68BB4244
:101A100021D1037F4560022BC46020D0FFF748FF2F
:101A20006368002BE6D023602046FFF7A5FF3468EB
:101A3000002CE1D1EFF3108372B60E4A002110683A
:101A4000116003B962B628B18468FFF795FF20469C
:101A50000028F9D1F8BD224600219847E0E78368C5
:101A60009847DDE7013B2360E4E700BFC093FF1F19
:101A7000E9140000D093FF1F024A1368013313607A
:101A8000FFF7AEBFD493FF1F704700BF0368F0B4E9
:101A9000FBB1002501249D60DC601B4C1A601C44D6
:101AA000241104F144056A11032692009E60174F29
:101AB0000679174B47F8241002F1604202F56142A3
:101AC00005F01F05012000FA05F5E6541560F0BC8D
:101AD0007047104C236843F40003236000BF0E4B93
:101AE0000E4DA4F58734A4F59E7401261E6023468E
:101AF00004609C68002CD0D01033AB420360F8D156
:101B0000002303601846E2E7008FFCBF6C87FF1FCD
:101B100044E400E03C800440007003404071034016
:101B20000168A9B10B4BF0B40B441B110A4E0B4FCB
:101B30000B4D46F8237003F1440202F01F04012309
:101B40005211A340002445F822308C600460F0BCA0
:101B5000704700BF008FFCBF6C87FF1F891A000011
:101B600080E100E0024A034B012111601B68184725
:101B70000C7103406C87FF1F024A034B0121116067
:101B80005B6818471C7103406C87FF1F024A034BB8
:101B9000012111609B6818472C7103406C87FF1F5F
:101BA000024A034B01211160DB6818473C71034076
:101BB0006C87FF1F2DE9F0438C688BB0ECB10025DA
:101BC000064689462F462B46212201A9484600F0A9
:101BD0007BFA3268202C234628BF2023D2F80480C9
:101BE00001A91A4630461D44E41AC0470744002C98
:101BF000E9D138460BB0BDE8F0832746F9E700BFCE
:101C000000B5064A036812885B6883B001A9ADF885
:101C100004200222984703B05DF804FBE0A1000015
:101C2000F0B507468BB0002A33D0012A08BF0A223C
:101C300051B3212400E0F4B2B1FBF2F502FB15111F
:101C4000C8B2092900F1300198BFC8B20AA988BFFB
:101C50003730214488BFC0B201F8240C661E2946E3
:101C6000002DE8D133B1013CE4B20AAB23442D226C
:101C700003F8242C3B6801AA11195B683846C4F1AB
:101C8000220298470BB0F0BD30228DF82520212488
:101C9000E8E70368C9B21B6898470BB0F0BD00BF06
:101CA0002DE9F04385B080461946104616461F467A
:101CB0009DF8305002F086FE002840F0B18027F0F9
:101CC0000044304621464FF0FF32594B02F07AFE75
:101CD00098B9304621464FF0FF32554B02F054FE82
:101CE00058B9D8F8003053495B68404603229847FA
:101CF0008146484605B0BDE8F083304639464FF08E
:101D000060424D4B02F054FE002870D130463946F7
:101D10004FF06042494B02F02DFE002867D130465B
:101D200039460022002302F025FE002863D18146B7
:101D3000002D65D0424B00240022104619463AA3DC
:101D4000D3E9002302F0A4FB01340B46E1B28D423B
:101D50000246F2D83046394602F0E8F90F46064608
:101D600002F046FE044602F01DFB02460B463046DA
:101D7000394602F0D9F94B4606460F460A2221465B
:101D80004046FFF74DFF0F2D28BF0F2501352E23AD
:101D90008146EDB28DF8003001240022294B3046F7
:101DA000394602F075FB0F46064602F021FE04ABF1
:101DB0002344C0B200F1300203F8102C02F002FB01
:101DC00002460B463046394602F0AEF90134E4B221
:101DD000AC4206460F46E0D1D8F8003022465B6898
:101DE000404669469847484605B0BDE8F083D8F8B4
:101DF0000030154978E707F100474FF0010997E7F0
:101E000000220F4B3046394602F090F902F0F0FD07
:101E10004B4601460A224046FFF702FF814668E72B
:101E2000D8F8003009495FE7000000A09999B93F50
:101E3000FFFFEF7FECA10000FFFFEF41FFFFEFC1CD
:101E40000000E03F00002440E8A10000E4A1000001
:101E500041EA0020704700BF10B50446006803F057
:101E6000ABF9204610BD00BF38B543688B4201D3A3
:101E7000012038BD0D4604460131006803F028FDFD
:101E80000028F6D0A36884E82100002BF0D103706D
:101E9000EEE700BFF8B50446154632B9036803B152
:101EA0001A700023A3602046F8BD0E461146FFF7C6
:101EB000DBFF074648B9206810B103F07DF92760C1
:101EC00000236360A3602046F8BDA560314620680A
:101ED00003F008FFE7E700BF38B5002304460360BE
:101EE00043608360037341B108460D4603F068FF09
:101EF000294602462046FFF7CDFF204638BD00BFE9
:101F00000023884210B50446036043608360037376
:101F100003D08A680968FFF7BDFF204610BD00BFE7
:101F200038B5054608460C4603F04AFF21460246EE
:101F30002846BDE83840FFF7ADBF00BF10B50446E6
:101F4000002386B023606360A3602373084601A961
:101F500003F028F901A92046FFF7E2FF204606B06A
:101F600010BD00BF10B5044600238AB02360636033
:101F7000A3602373084601A900F0D0F901A9204607
:101F8000FFF7CEFF20460AB010BD00BF10B50446D3
:101F900000238AB0084623606360A3602373911C0A
:101FA0006B4600F0CDF930B101462046FFF7B8FF8F
:101FB00020460AB010BDA06020460AB010BD00BF88
:101FC00038B5054600680C4628B16A688B689A42A5
:101FD0000CD203F0F1F823686168A2682B6000233B
:101FE0006960AA6023606360A36038BD096803F07C
:101FF00079FEA368AB600023A36038BD884210B5AA
:10200000044601D0FFF7DCFF204610BD2DE9F84360
:1020100003680F46BB420446816815460AD85A1821
:10202000974207D2C3EB07094FF0010835B92046A4
:10203000BDE8F8834FF00008002DF8D04E19314666
:102040002046FFF711FF0028F1D0B8F1000F0ED0A5
:102050002368A0682A4603EB0901184400F056F8EB
:10206000236800229A55A6602046BDE8F8832068C0
:10207000A3683946184403F035FEF4E710B58A68C2
:1020800009680446FFF7C2FF204610BD38B5054673
:1020900041B108460C4603F093FE2146024628460D
:1020A000FFF7B4FF284638BD10B582B000238DF885
:1020B0000410012201A904468DF80530FFF7A6FFA0
:1020C000204602B010BD00BFB2B1A9B138B58468D6
:1020D0009C420ED9E41A013A0D469442016828BF89
:1020E000144619442246284603F028FF00232B55A6
:1020F00038BD00230B7038BD704700BF08B5FEF730
:10210000BFFEFEF71DFF01F0CFFCFAE7844641EA6F
:10211000000313F003036DD1403A41D351F8043B5F
:1021200040F8043B51F8043B40F8043B51F8043BB1
:1021300040F8043B51F8043B40F8043B51F8043BA1
:1021400040F8043B51F8043B40F8043B51F8043B91
:1021500040F8043B51F8043B40F8043B51F8043B81
:1021600040F8043B51F8043B40F8043B51F8043B71
:1021700040F8043B51F8043B40F8043B51F8043B61
:1021800040F8043B51F8043B40F8043B51F8043B51
:1021900040F8043B51F8043B40F8043B403ABDD2C0
:1021A000303211D351F8043B40F8043B51F8043B62
:1021B00040F8043B51F8043B40F8043B51F8043B21
:1021C00040F8043B103AEDD20C3205D351F8043BF1
:1021D00040F8043B043AF9D2043208D0D2071CBFBD
:1021E00011F8013B00F8013B01D30B8803806046E6
:1021F000704700BF082A13D38B078DD010F003035C
:102200008AD0C3F10403D21ADB071CBF11F8013BCB
:1022100000F8013B80D331F8023B20F8023B7BE71A
:10222000043AD9D3013A11F8013B00F8013BF9D245
:102230000B7803704B7843708B78837060467047DF
:1022400008B5104C08E0236859050DD423681A0519
:102250000FD42368DB0411D423685803F3D500F0AE
:1022600039FC23685905F1D501F0F2FC23681A0501
:10227000EFD501F083FD2368DB04EDD501F014FEFA
:10228000EAE700BF3480044008B5FFF7D9FF00BF7C
:10229000014B10221A80704700200540704700BF94
:1022A000094908B50B6830B16A461844A2F5805256
:1022B000904202D20860184608BD02F02DFF0C23A0
:1022C00003604FF0FF3008BD7C87FF1F02F074BF32
:1022D000F0B44D1E2E46002400E00134B0FBF2F3B2
:1022E00002FB1300092800F130078ABF3730F8B22B
:1022F000C0B206F8010F1846002BEED10A19537030
:102300004CB1107815F8016F28700133E01A834240
:1023100002F80169F5DB0846F0BC704710B5041EF1
:1023200003DBBDE81040FFF7D3BF2D23204640421A
:102330000C4601F8013BFFF7CBFF204610BD00BF64
:102340002DE9F04F0D4685B085EAE57901468246D4
:1023500017461C46A9EBE57902F08EFE002840F0F6
:102360002F812AF000484046C74902F085FE002828
:1023700047D14046C44902F061FE0646002840D1DC
:102380000021504602F050FE002814BF0420032014
:1023900048451DDB002DC0F274815046002102F03B
:1023A00043FE254648BB49214E22462321706270D8
:1023B000A3700334002E00F07681A019202304F8C6
:1023C000013BA042FBD10023037005B0BDE8F08FB4
:1023D000002DC0EB0906E0DA002E00F05281A519AD
:1023E000202304F8013BAC42FBD15046002102F00F
:1023F0001BFE002800F0228100262D232B706C1C70
:10240000D1E702AB01AA3946504602F075FEBB4641
:102410008046DDF80490002F57D0C9F10003BB427D
:1024200000F39480404603F0CBFC0646B145B8BFAC
:102430000136B9F1000F40F098800136DDF808E070
:10244000BEF1000F53D00136A81B002804EB060193
:1024500053DC23462D221A700133B9F1000F63D1EA
:1024600037B11A46302002F8020B2E20587013465E
:102470008B4220D25F1C98F800201A708F4208F11E
:10248000010819D0019A4FF02E0E0BE083F801E0FD
:1024900002338B4203F101070DD218F8010B1870BB
:1024A0008F4209D0013A0192002AEFD03B468B427D
:1024B00003F10107F1D31946002DC0F2A9800023D2
:1024C00020460B7005B0BDE8F08FB9F1000FA4D124
:1024D00090F800806D496E4A012301939946B8F146
:1024E000340F8CBF884690464FF0FF3397E7A81B08
:1024F000002804EB060140F3D8800144224601384D
:102500004FF0200C02F801CBC2F101030344234435
:10251000002BF7DC20EAE07301332344BEF1000F07
:1025200098D1B9F1000F9BD0A2DA002FA0D01A46A3
:10253000302002F8020B2E275F70C9EB020302F86D
:10254000010B9342FBD10022019291E7C7F10009F0
:102550000126B1453046B8BF0136B9F1000FDFF8AA
:102560003081CDF804903FF468AFBFF667AF002F1D
:102570003FF464AF09EB0703984207F102067FF6C8
:102580005DAF002F07DD5046424902F0AFFBBBF1C3
:10259000010B8246F7D102AB03AA5946504602F01E
:1025A000ABFDDDF80490039A7B1CC9EB02029A4252
:1025B00008BF09F10109804608BFCDF804903DE746
:1025C0000021504602F030FD002814BF04200320F3
:1025D00048453BDA002DC0EB09063BDB4FF07E534C
:1025E0005046002163F31E0002F01EFD2546002820
:1025F00041D14E2341222370A37062700334002E18
:1026000051D0A019202304F8013B8442FBD1DAE623
:10261000A8194342002B6FEA00007FF750AF0A462B
:10262000202502F8015BC2F1010303440B44002B97
:10263000F7DC20EAE0730133194440E749214E22D8
:10264000462329706A70AB70E81CBCE6002D16DBCF
:102650000026C3E79EB1A519202304F8013BAC4234
:10266000FBD14FF07E535046002163F31E0002F071
:10267000DBFC88B100262D232B706C1CB9E72546A6
:10268000EFE72546B1E600BFFFFF7F7FF4A1000022
:10269000F0A10000000020414E2341222B70AB70BE
:1026A0006A70E81C8FE620468DE62346D5E600BF1B
:1026B0001C4A02EBC00301295B6811D004291BD01E
:1026C00052F83000002280F8802229B1022920D05F
:1026D000032922D01A6070474FF480721A60704745
:1026E00052F830004FF4A27280F880121A601A6813
:1026F00022F020021A60704752F830104FF4A27294
:10270000012081F880021A601A6842F020021A60E3
:10271000704740F203121A6070474FF481721A60DA
:10272000704700BFF8A1000030B4054B054D064CC2
:10273000002210211A602A602060196030BC7047A6
:1027400014D0034004D0034000D00340212801D816
:10275000FFF7AEBF704700BF72B60D490D4B0E4A72
:102760001B680868126862B6520102D5322B88BF16
:1027700001300A49C3F58C334FF47A7203F23F13E8
:10278000A1FB031302FB00F000EB1310704700BF26
:10279000D493FF1F18E000E004ED00E0398EE33829
:1027A0002DE9F843054672B6214F224B224A1B6899
:1027B0003C68126862B6520102D5322B88BF0134E0
:1027C000A5B3C3F58C331D4EDFF86890DFF8688041
:1027D00003F23F134FF47A72A6FB031302FB04F4D7
:1027E00004EB131472B6D9F800103A68D8F800E078
:1027F00062B6C1F58C3303F23F13A6FB03031EF050
:10280000806FC4EB13134FF47A7002D0322988BF63
:10281000013200FB0233B3F57A7F04D3013D05D0CA
:1028200004F57A74DEE701F03FF9DBE7BDE8F883F1
:10283000D493FF1F18E000E004ED00E0398EE33888
:10284000F8B52D4B2D49DFF8D0E0DFF8D0C02C4E85
:102850002C4D2D4C2D4A2E4F4FF4000018604FF098
:10286000807018604FF0007018604FF08060186042
:102870004FF00060186000200860282348F6FF71C0
:10288000CCF80010CEF80030336013602B6023606A
:102890003B60B3629362092245F8242CC4F8D80F38
:1028A00005F57F65C7F8D41F07F5FF2707F5FA6719
:1028B000C6F8F83F2B6006F5FF26C4F8D42F05F5BF
:1028C000FD2504F5FF24386006F2F47611483160E6
:1028D00005F5FF6504F5FD642B602360026001F0DF
:1028E00037F91920FFF75CFF00F05CFE40F213108F
:1028F000BDE8F840FFF754BF08E100E00480034062
:1029000014800340248003402C8003401C8003403B
:102910003480034000800B400C800340088003405B
:10292000431E032B14D872B60A4951F8230068B12C
:1029300070B4094C058834F81320466841F82360C8
:10294000521B24F8132062B670BC704762B6704701
:10295000002070473094FF1F9496FF1F0138032812
:102960000BD872B6074B53F8203043B100205B6898
:102970000130002BFBD162B670470020704718462B
:10298000F9E700BF8494FF1F30B472B62B4A137866
:102990001D0706D52A4B196A002936D0996A0029E5
:1029A00041D053781C0706D5254B196C00293ED021
:1029B000996C002939D09378190705D5204B196EE9
:1029C000002936D0996E89B1D3781B0707D51C4BE7
:1029D000D3F880207AB3D3F8882011213AB162B6B7
:1029E000184B00221A7030BC00F07EBE0D21154C31
:1029F000154D227843F8315003EBC1030830013AFA
:102A00005860227062B630BC704704220D4C0F4DE6
:102A1000217843F8325003EBC20308304A1E586055
:102A2000227062B6EFE70521E1E70921DFE708221E
:102A3000ECE70C22EAE71022E8E700BF30A3000031
:102A40000080FF1FAD94FF1FC800400088004000B9
:102A5000431E032B1DD81B4A400140F0100030B428
:102A6000104472B6184CE25C032A1BD8DFE802F06F
:102A70000212151703220D88E25410F0080F14BF3C
:102A8000C823882343EA054308310360416062B6E6
:102A900030BC704708300222EDE70522EBE7083032
:102AA0000422E8E7094A52F8230038B1084A52F8EC
:102AB0002300416042F8231062B6E9E742F8231090
:102AC000034AF7E70080FF1FBC94FF1F8494FF1F99
:102AD0009494FF1F2DE9F04FDFF80CB3DFF80CA33F
:102AE00087B044E0AB4F4FEA930807EBC809013EBB
:102AF000D9F8042003F00803F6B2A2F1080003F0AD
:102B0000FF04002B40F0028157F838301B0C99B2BB
:102B100022F8081C002B00F0F0809F4B22F8064C96
:102B200042F8044C53F82620002A00F0C5829B4D41
:102B300055F8263058609A4C45F8260034F816307F
:102B4000194424F8161000F0AFFD002800F0AD8203
:102B5000944A954B19F0080F00F1080018BF13466E
:102B6000C9F8040047F8383008238BF800309BF888
:102B70000040E4B261071AD58C4B1B78A3B18C4995
:102B80000A7802F0FF0322B1013BDBB20B7003B9FC
:102B900000BE88490A7802F0FF032AB1013BDBB28C
:102BA0000B70002B00F0578204238BF8003004F0E8
:102BB000080303F0FF02002B00F0CC809AF80030ED
:102BC000DBB21E098ED19C08DFF8C89159F8342079
:102BD00009EBC401C2F38302013A49680C2A00F2EE
:102BE0008880DFE802F07C7C86868686868647863B
:102BF000868607000868704D4A68704F704E2860DE
:102C000081B240F28160674B6A604FF0010E002292
:102C1000814249F834303A60C9F81020C9F81820C8
:102C200086F800E05B4C00F2E380B1F5D06F80F0F5
:102C30004683B1F5817F00F0FC8200F28D8280290D
:102C400000F07783822940F0FA82A98801F07F01A1
:102C5000042900F2F4825B485B4C8900084422702E
:102C600062700278930740F1588484F800E04FF0D6
:102C7000020E42E3514F3A6832B3544B504E54491E
:102C8000188834780D784028864645F0020828BF19
:102C90004FF0400E002C84F001043470CEEB0000A5
:102CA0000CBF8824C82409EBC80680B285F0010552
:102CB00044EA0E447260188049F8384072440D703E
:102CC000002800F045813A603B4B1A88B2F5A06FAE
:102CD0000FD100219A7859703E4B1A7009E0364A9C
:102CE000108842F22102904200F037812D4A49F8C3
:102CF0003420394A0123137036E72A4A2A4B19F047
:102D0000080F18BF134647F838302DE700F0ECFCE9
:102D1000324A334952F82630002B00F0D1815868EE
:102D20008C5D42F8260003F10802C9F80420032C48
:102D300005D8DFE804F02C02292602228A551A88D9
:102D400019F0080F0CBF8823C82343EA024347F851
:102D5000383009E7E00700F18181210600F1F281B6
:102D6000A20706D51F4A204913780220DBB2137050
:102D70000870E30602D51C4B10221A7007B0BDE89C
:102D8000F08F04228A55DAE705228A55D7E7032215
:102D90008A55D4E70080FF1F3094FF1FDC93FF1F8C
:102DA0009496FF1FC800400088004000B894FF1FA1
:102DB0004194FF1FC094FF1FA494FF1FD893FF1FCF
:102DC0004094FF1FC0200740B094FF1FEC93FF1FEB
:102DD000AC94FF1F98200740942007408494FF1F65
:102DE000BC94FF1F882007408020074090200740A8
:102DF00042F22100814200F02A8100F2D880B1F530
:102E0000086F00F07682B1F5106F40F01882226AE8
:102E1000B349A8780870120600F13A83D9F828203F
:102E2000B049130600F10C83D9F83020AD491506DE
:102E300000F10183D9F83820AA49140600F1F6827E
:102E4000D9F84020A749100600F14A83D9F8482054
:102E5000A449120600F13F83D9F85020A149130676
:102E600000F13483D9F858209E49150600F12983D2
:102E7000D9F860209B49140600F11E83D9F8682018
:102E80009849100600F11383D9F87020954912066D
:102E900000F10883D9F878209249130600F1FD82E9
:102EA000D9F880208F49150600F13183D9F88820A0
:102EB0008C49140600F12583D9F890208949100621
:102EC00000F11983D9F898208649120600F10D8384
:102ED0008548864A864901908648874D874C0497E5
:102EE00000230596029580460F4616461D4603941C
:102EF000306828B1446800F0F7FB2046002CF9D177
:102F000000233360029B38681A46002342F82530BC
:102F100028B1446800F0E8FB2046002CF9D10022DB
:102F20003A60019A98F800301146002241F8042BCB
:102F3000039A0191023B4FF0000122F81510032B78
:102F400000F22B81DFE813F07001250170012501EB
:102F5000BEF1400F18BF0022B5E6694A0D784878E7
:102F6000157050708D78C8789570D07010680D7994
:102F7000157186284D7989795571917100F09B8181
:102F80006049614E0A78307882F00105002842F0ED
:102F900002020D700CBF8821C82149F8321009EBDC
:102FA000C20280F001000021307051609EE642F2C2
:102FB0002120814240F0CB81544B554C5549A87893
:102FC0001D682560CDF804E008700020029080465E
:102FD000844604464B490D7845F0020E09EBCE03BA
:102FE0000393019B002B039B5C600CBF8824C824C7
:102FF00044EA080385F0010449F83E3032700C7051
:10300000DFF8E0E0404BDFF8FC80002840F01E8154
:10301000BCF1400F1BD144F0020C09EBCC03029C25
:10302000DFF8C0E05C60002A40F02681020442F034
:1030300088029DF804304EF83C20044433700D7033
:103040002346402803D10020334A3B601080334A96
:10305000012313704DE600F003FDA5E5214B2F4839
:1030600028491A614FF0020E80F800E02C4F0A70D8
:103070002C49196099602C4E2C4D2D4C9A610D21D4
:103080003970FF213170DFF8B8E029702270294DC6
:10309000294A8EF800109F27012406F8047C5D6001
:1030A0000470DA6007B0BDE8F08F244A47F83800B2
:1030B00013780133137057E543F826000E4D3AE5B7
:1030C0008B5D032B00F2F08001A252F823F000BFC9
:1030D000692B0000692B00008D3100008731000052
:1030E000B894FF1F0080FF1F9494FF1F3094FF1FB0
:1030F0008494FF1FBC94FF1FDC93FF1F9496FF1F57
:103100009C96FF1FAC94FF1F4094FF1FD493FF1F9A
:10311000A496FF1FD094FF1FEC93FF1F942007403D
:10312000C0200740880040008820074080200740DA
:1031300098200740F093FF1F4494FF1FAD94FF1F9A
:103140008C200740C149C24B80220D2008701A70A4
:10315000A2077FF50EAE05E640F20232914240F042
:10316000EE80A98801F07F01042968D86A88002AC6
:1031700065D1B648CDF804E089000844017841F0F3
:103180000201017021E701238B55EDE400238B55EB
:10319000EAE44FF0010388F800300135042D06F110
:1031A000040607F1040708F101087FF4A1AEA94C59
:1031B000A94B2278A94D049F059E002129701A7001
:1031C000130700F105816278A549DFF8A0820A7033
:1031D00010074FF00001C9F83010C9F8381000F19D
:1031E000E080A049A2780A700021C9F85010C9F8FF
:1031F00058101107DFF8748200F10181E2789A49D2
:103200009A4C0A7000211207C9F87010C9F878109A
:1032100000F1B08033780193002183F00102C9F8F6
:103220009010C9F89810D0E64FF0000388F80030ED
:10323000B3E7A98801F07F01042940F28D80834A19
:103240000F2313708A4A0123137052E540287FF63A
:10325000E2AE44F002040EEBC401029E4E60BAB12D
:103260009DF80410834A19703346403888F800509E
:1032700040334EF83420E7E69DF804303370020402
:10328000029B0D7042F0C80203444EF83C20D8E681
:103290009DF804101970029B774A88F80050403856
:1032A00040334EF83420CFE619F0080F0CBF02234C
:1032B00003238B5558E4714A0F21117060E6704A60
:1032C0005468002CBBD06888B5F804E003E00C32E9
:1032D0005468002CB3D013888342F8D153887345C7
:1032E000F5D1000A03280CBF94F800E0B2F808E01A
:1032F00003E0644A644C12782270E888704580F0DC
:103300003F8162490D784028844645F0020E28BF6F
:103310004FF0400C04EB0C0309EBCE0202930123A7
:103320005460CCEB00004FEA0C4800220193C82403
:103330005EE6554C4FF0020E22706270DDE7B1F58B
:10334000A06F7FF47CAF0123002201933DE642F29F
:1033500021329142F7D072E76A88002A7FF46FAF7A
:103360003A48CDF804E089000844017821F00201D0
:1033700001702AE600F098F9002800F0EF8008308C
:103380003D4AC4F88400C4F8802000F08DF900287C
:1033900000F0DE800830374AC9F88C00C9F8882070
:1033A00038E700F081F9002800F0C0800830324A88
:1033B000C8F84400C8F8402000F076F9002800F072
:1033C000AF8008302B4AC9F84C00C9F8482008E7FC
:1033D00000F06AF9002800F0CD800830264AC9F8CC
:1033E0002400C9F8202000F05FF9002800F0BC801C
:1033F0000830204AC9F82C00C9F82820E3E600F07C
:1034000053F9002800F09E8008301B4AC8F8640079
:10341000C8F8602000F048F9002800F08D800830DE
:10342000144AC9F86C00C9F86820E7E6C86B083888
:1034300000F05AF904E5486B083800F055F9F9E452
:10344000C86A083800F050F9EEE400BFC020074019
:103450008020074030A30000C4200740AD94FF1F28
:10346000C8200740CC200740D02007400080FF1F25
:1034700094200740C8004000880040004194FF1F8E
:1034800034A30000B894FF1FB094FF1FAC94FF1F3B
:10349000606A083800F028F9C0E4C86F083800F006
:1034A00023F9FDE4486F083800F01EF9F2E4C86E15
:1034B000083800F019F9E7E4486E083800F014F90C
:1034C000DCE4C86D083800F00FF9D1E4486D083825
:1034D00000F00AF9C6E4C86C083800F005F9BBE44E
:1034E000486C083800F000F9B0E4D1F89C000838C6
:1034F00000F0FAF8ECE4D1F89400083800F0F4F8A1
:10350000E0E4D1F88C00083800F0EEF8D4E4D1F80B
:103510008400083800F0E8F8C8E44FF0020EECE64A
:103520002A78C9F8480001322A705AE62A78C8F881
:10353000400001322A703FE72A78C9F8680001325A
:103540002A705BE62A78C8F8600001322A7061E7C9
:103550002A78C9F8880001322A705BE62A78C4F814
:10356000800001322A7010E72A78C9F82800013259
:103570002A7028E62A78C9F8200001322A7032E73A
:10358000BEF1400FF44628BF4FF0400C04EB0C0393
:1035900002930123CCEB0E004FEA0C48002201936A
:1035A00018E500BFF8B500F0EBFC294B29482A4C80
:1035B0002A4F2B4DDFF8BCC0DFF8BCE0294E0022BB
:1035C0001A605A609A60DA601A615A619A61DA6127
:1035D0001A625A629A62DA621A635A639A63DA6307
:1035E0001A645A649A64DA641A655A659A65DA65E7
:1035F0001A665A669A66DA661A675A679A67DA67C7
:10360000C3F880200168C3F8842041F48021016060
:10361000C3F307212170C3F30740134938701B0E11
:103620002B70FF238CF80030104D8EF800301048BE
:103630000B700123337084F8642070264FF40074FB
:10364000102207F82C3C2E70046081F8F820F8BD99
:103650000080FF1F348004409C200740B0200740BA
:10366000B4200740942007401020074049E400E0C0
:1036700008E100E0802007408820074000F0F4B80F
:1036800000F07CB800F056B800F090B800F0BCB97B
:1036900000F096B90846114600F002B9084600F05D
:1036A00083B900BF704700BF72B60D480268B2FA16
:1036B00082F30B2B10DC4FF00041D94022EA0102CB
:1036C000026062B6074803EBC303DB00C2180021A7
:1036D000C15010465160704762B60020704700BF6D
:1036E0009087FF1FBC83FF1F0D4B0E4AC31AA2FB1E
:1036F00003231B090B2B0CD80B4A127852B972B654
:103700000A484FF00041026821FA03F31A430260AD
:1037100062B67047064A1278002AF0D0FFF734B933
:10372000BC83FF1F398EE338AD94FF1F9087FF1FC6
:10373000B894FF1F38B50F4D286878B143880288C8
:10374000C118013393420C7A02D24380204638BD1F
:10375000FFF7CAFF002320462B6038BD064B1B78BD
:103760002BB10320FFF7DCF828600028E6D14FF0EA
:10377000FF3038BDCC94FF1FB894FF1F10B5094C23
:10378000206818B143881844007A10BD064B1B7896
:103790002BB10320FFF7C4F820600028F2D14FF0CE
:1037A000FF3010BDCC94FF1FB894FF1F044B054A97
:1037B0001B6890881BB11A885B88D31A184470471D
:1037C000CC94FF1F9496FF1F2DE9F84F0E46002959
:1037D00042D0DFF890A09AF8003003F0FF091BB345
:1037E0004FF000091E4F8046CB463C6824B3258825
:1037F0006388ED1AB54228BF354604F10801194423
:103800002A464046FEF782FC638822882B449BB2FE
:103810009A42A944A6EB0506A844638016D91EB1B6
:103820009AF80030002BE0D14846BDE8F88F0588B3
:10383000002DDDD1FFF758FF0320FFF771F8044694
:1038400038600028F3D14846BDE8F88F2046FFF7DE
:103850004BFFC7F800B0E2E70846BDE8F88F00BFAD
:10386000CC94FF1FB894FF1F0B4B1B789BB110B576
:103870000A4C206848B1FFF737FF0023032023607C
:10388000FFF74EF830B1FFF72FFF0320FFF748F89E
:103890000028F8D110BD7047B894FF1FCC94FF1FCB
:1038A0002DE9F04FDFF8F89083B0012289F800206D
:1038B000019169B3DFF8EC80364F019E8346D8F85A
:1038C0000000B0B3344D4488C4F14001B14228BF78
:1038D000314604EB010E00221FFA8EFE2A70761A82
:1038E000A0F802E000F1080251B1013C2244594421
:1038F0001BF8014B02F8014F8B45F9D1B0F802E0FB
:10390000BEF13F0F0BD8254A05211170002ED6D1EC
:103910000198002389F8003003B0BDE8F08F402201
:10392000028001460420FFF793F80022C8F8002027
:10393000E9E73A782AB3184D48F601444FF0010AF6
:1039400007E0013C16D02A78A2B900F0ADF83A7829
:10395000BAB10420FFF702F80728F2D889F800A0CE
:10396000FFF7A2FEC8F800000028ACD10C4B013CC8
:103970001870E8D101234FF0FF302B7003B0BDE881
:10398000F08F00234FF0FF3089F8003003B0BDE81E
:10399000F08F00BFB894FF1FC894FF1FC094FF1F93
:1039A000C194FF1FC494FF1F00B583B002AB012177
:1039B00003F8010D1846FFF773FF03B05DF804FB31
:1039C00038B50E4D0E4C28680123237028B140886D
:1039D00000232370C0F1400038BD0A4B1B7813B997
:1039E0000020207038BD0420FEF7B8FF0728F7D864
:1039F000FFF75AFE28600028E9D1F1E7C494FF1FC1
:103A0000C194FF1FB894FF1FF8B5114B1B788BB101
:103A1000104E114D346801272F7064B10F4A63882E
:103A200000271770214623800420FFF711F8376024
:103A300000232B70F8BDFFF737FE084B28B1014675
:103A400004201C70FFF704F8F2E71F70F0E700BFD6
:103A5000B894FF1FC494FF1FC194FF1FC094FF1FA1
:103A600038B50E4B1B7873B90D4C216861B103F06A
:103A7000FF054B880B800420FEF7EAFF256038BD68
:103A8000084B01221A7038BDFFF70EFE0028F7D050
:103A90000146BDE838400420FEF7DABFC194FF1F9D
:103AA000C494FF1FC094FF1F38B5224C237803B184
:103AB00038BD01232370FFF779FE70BB00F0B8F822
:103AC00040BB00F04BF910BB00F0DEF9E0B9002379
:103AD0002370EFF30583002BEAD1EFF3108172B668
:103AE000154B1868E0B1154C2278CAB945691D60BC
:103AF00001232370C5B1AA6101B962B600254577DB
:103B0000836898472570D3E700F020F8DFE700F0DE
:103B10001BF8D9E700F016F8D3E7FFF7C3FDCDE7B0
:103B20000029C5D162B638BD054B1D600029E5D11D
:103B3000E3E700BFD194FF1FC893FF1FCC93FF1F83
:103B4000C493FF1F704700BF704700BF704700BF9E
:103B500030B42948294A2A4B2A4D6024E1210470B7
:103B600011701B78284C082B30D00A2B2748284985
:103B700037D00C2B0CBF15223D2212232A60236064
:103B800002600B60234B24491B78244ABBB10123FC
:103B90000B601360224B23491B78234A012B26D943
:103BA000042B0FD9082B1ED9102B94BF86238723F3
:103BB0000B6013601D4B01221A7030BC70470B6004
:103BC0001360E7E784230B601360F3E700F58E20B2
:103BD0000F490830012213232A60236002600B6022
:103BE000D0E71922F7E785230B601360E2E7802313
:103BF0000B601360DEE700BF004007400140074054
:103C00009487FF1F08B003400CB0034008B00B407E
:103C10000CB00B40D394FF1F20B0034020B00B40EA
:103C20009587FF1F24B0034024B00B40D294FF1FA0
:103C3000054A064B10781B78C0B2DBB2984238BFF9
:103C40004030C01A704700BFD894FF1FD994FF1F9F
:103C5000F0B4384B1A7912F0300F2CD072B6997D2F
:103C600001F0FF0200293DD062B6334F3349387866
:103C70000D78334E1C46C0B2EDB2431C402BE179A7
:103C800028BF0023AB4202F1FF32C9B21CBFF1547E
:103C9000184612F0FF02F0D12A4B1B68C2B23A70EC
:103CA0004BB1A84236BFC5F14005401B401927283B
:103CB000C4BF01221A701F49CA78D2B2150616D4A1
:103CC00052060DD51B4B1B795B0609D51E4B1F49B0
:103CD0001B6800220A7003B11A70164B3C22DA707E
:103CE000F0BC70474022D9795A7462B6E3E70B7989
:103CF0001C06E5D5164B174E1C783378E4B2DBB2C0
:103D00009C420ED0144D01E0A3420AD00133402B57
:103D100028BF00230879E85CC0B2C871087D072875
:103D2000F2D9DBB2034933700B79180644BF7C2308
:103D3000CB70C5E700A00640D894FF1FD994FF1FA1
:103D40001C95FF1FD494FF1F6095FF1F5C95FF1FFC
:103D50006495FF1F5D95FF1FDC94FF1F054A064B0E
:103D600010781B78C0B2DBB2984238BF4030C01A1E
:103D7000704700BFD895FF1F6D95FF1FF0B4384BFB
:103D80001A7912F0300F2CD072B6997D01F0FF0233
:103D900000293DD062B6334F334938780D78334E21
:103DA0001C46C0B2EDB2431C402BE17928BF002372
:103DB000AB4202F1FF32C9B21CBFF154184612F0F7
:103DC000FF02F0D12A4B1B68C2B23A704BB1A84235
:103DD00036BFC5F14005401B40192728C4BF01224A
:103DE0001A701F49CA78D2B2150616D452060DD5DC
:103DF0001B4B1B795B0609D51E4B1F491B68002214
:103E00000A7003B11A70164B3C22DA70F0BC70478E
:103E10004022D9795A7462B6E3E70B791C06E5D5DE
:103E2000164B174E1C783378E4B2DBB29C420ED0AE
:103E3000144D01E0A3420AD00133282B28BF0023F0
:103E40000879E85CC0B2C871087D0728F2D9DBB2F6
:103E5000034933700B79180644BF7C23CB70C5E748
:103E600000B00640D895FF1F6D95FF1F9895FF1F66
:103E70006895FF1FDC95FF1F6C95FF1FE095FF1FE6
:103E8000D995FF1F7095FF1F054A064B10781B78C8
:103E9000C0B2DBB2984238BF4030C01A704700BF92
:103EA000E895FF1FE995FF1F30B42B4B1A79940654
:103EB0001FD52A48DA790378294901333F2B09783D
:103EC000C8BF00238B42D2B203D0264CD9B2E254F1
:103ED0000170254A116861B1244A1278D2B2934226
:103EE00036BFC2F140029B1A9B18272BC4BF012387
:103EF0000B70194AD378DBB2180611D45A060DD5C7
:103F0000154B1B795B0609D5194B1A491B68002212
:103F10000A7003B11A70104B2C22DA7030BC704753
:103F200011790906EAD5144910480C780178C9B20C
:103F30008C420DD04A1C272A84BF00210A460F4D0F
:103F4000054C98BFD1B2AA5CD2B2E2710170D5E73C
:103F50006C21D170D2E700BF00C00640E895FF1F7A
:103F6000E995FF1F1496FF1FE495FF1F5596FF1F4D
:103F70005896FF1F5496FF1F5C96FF1FEC95FF1F7E
:103F800070B584B072B6194B194D1A48702241268B
:103F90000F2480211A702E701A460470197013783D
:103FA0001B06FCD5144B186862B6144B144C98428F
:103FB00098BF00EB800001A998BF40000A22FEF7DD
:103FC00087F901A92046002311F8012B01333AB1EA
:103FD0000A2B20F8022FF7D11623237004B070BDEE
:103FE0005B00DBB2237004B070BD00BF0000024074
:103FF0000700024006000240080002407F96980039
:104000002488FF1F0B460146184601F06FB800BF19
:10401000C1F30A522DE9F843A2F2FF36132E0B46E4
:104020000D460446884607461CDC002E3FDB3A4A14
:1040300042FA06F901EA09020243864617D034A380
:10404000D3E9002300F072F80022002300F0B0FC56
:1040500020B1002D40DB28EA090500273846294613
:10406000BDE8F883332E06DDB6F5806F2FD02046ED
:104070001946BDE8F883A2F213424FF0FF3929FA3E
:1040800002F910EA090FF2D021A3D3E9002300F0CE
:104090004DF80022002300F08BFC0028DED0002D1C
:1040A00020DB454627EA090738462946D8E718A302
:1040B000D3E9002300F03AF80022002300F078FC56
:1040C0000028CBD0002D18DB00273D46C6E702466E
:1040D0000B4600F02BF8CCE74FF4801343FA06F6BA
:1040E000B044B8E7142E10D00123C6F1340603FA09
:1040F00006F6371928BF9844D3E725F00042074B4E
:10410000224318BF1D460027A8E705F10108C8E7AC
:104110009C7500883CE4377EFFFF0F000000F0BF75
:1041200081F0004102E000BF83F0004330B54FEA68
:1041300041044FEA430594EA050F08BF90EA020FD5
:104140001FBF54EA000C55EA020C7FEA645C7FEA68
:10415000655C00F0E2804FEA5454D4EB5555B8BF8B
:104160006D420CDD2C4480EA020281EA030382EAFC
:10417000000083EA010180EA020281EA0303362D8E
:1041800088BF30BD11F0004F4FEA01314FF4801C61
:104190004CEA113102D0404261EB410113F0004F73
:1041A0004FEA03334CEA133302D0524263EB43032A
:1041B00094EA050F00F0A780A4F10104D5F1200EC8
:1041C0000DDB02FA0EFC22FA05F2801841F1000123
:1041D00003FA0EF2801843FA05F359410EE0A5F1F7
:1041E00020050EF1200E012A03FA0EFC28BF4CF028
:1041F000020C43FA05F3C01851EBE37101F00045DE
:1042000007D54FF0000EDCF1000C7EEB00006EEBEA
:104210000101B1F5801F1BD3B1F5001F0CD3490874
:104220005FEA30004FEA3C0C04F101044FEA4452CB
:1042300012F5800F80F09A80BCF1004F08BF5FEA52
:10424000500C50F1000041EB045141EA050130BD32
:104250005FEA4C0C404141EB010111F4801FA4F1D5
:104260000104E9D191F0000F04BF01460020B1FA2A
:1042700081F308BF2033A3F10B03B3F120020CDA62
:104280000C3208DD02F1140CC2F10C0201FA0CF040
:1042900021FA02F10CE002F11402D8BFC2F1200CA5
:1042A00001FA02F120FA0CFCDCBF41EA0C0190405B
:1042B000E41AA2BF01EB0451294330BD6FEA0404A4
:1042C0001F3C1CDA0C340EDC04F11404C4F120028F
:1042D00020FA04F001FA02F340EA030021FA04F3A1
:1042E00045EA030130BDC4F10C04C4F1200220FAF8
:1042F00002F001FA04F340EA0300294630BD21FA36
:1043000004F0294630BD94F0000F83F4801306BFFB
:1043100081F480110134013D4EE77FEA645C18BFEF
:104320007FEA655C29D094EA050F08BF90EA020F86
:1043300005D054EA000C04BF1946104630BD91EA7E
:10434000030F1EBF0021002030BD5FEA545C05D181
:104350004000494128BF41F0004130BD14F58004C0
:104360003CBF01F5801130BD01F0004545F0FE4134
:1043700041F470014FF0000030BD7FEA645C1ABF69
:10438000194610467FEA655C1CBF0B46024650EAA0
:10439000013406BF52EA033591EA030F41F40021CC
:1043A00030BD00BF90F0000F04BF0021704730B552
:1043B0004FF4806404F132044FF000054FF0000127
:1043C00050E700BF90F0000F04BF0021704730B5E8
:1043D0004FF4806404F1320410F0004548BF4042BD
:1043E0004FF000013EE700BF42004FEAE2014FEA12
:1043F00031014FEA02701FBF12F07F4393F07F4FED
:1044000081F06051704792F0000F14BF93F07F4F1E
:10441000704730B54FF4607401F0004521F0004161
:1044200020E700BF50EA010208BF704730B54FF0E7
:1044300000050AE050EA010208BF704730B511F0EC
:10444000004502D5404261EB41014FF4806404F124
:1044500032045FEA915C3FF4DCAE4FF003025FEAA6
:10446000DC0C18BF03325FEADC0C18BF033202EB2E
:10447000DC02C2F1200300FA03FC20FA02F001FA88
:1044800003FE40EA0E0021FA02F11444C1E600BF27
:1044900070B54FF0FF0C4CF4E06C1CEA11541DBFDA
:1044A0001CEA135594EA0C0F95EA0C0F00F0DEF8A5
:1044B0002C4481EA030621EA4C5123EA4C5350EA8A
:1044C000013518BF52EA033541F4801143F48013DB
:1044D00038D0A0FB02CE4FF00005E1FB02E506F06C
:1044E0000042E0FB03E54FF00006E1FB03569CF0C1
:1044F000000F18BF4EF0010EA4F1FF04B6F5007FC7
:1045000064F5407404D25FEA4E0E6D4146EB060638
:1045100042EAC62141EA55514FEAC52040EA5E50C1
:104520004FEACE2EB4F1FD0C88BFBCF5E06F1ED86B
:10453000BEF1004F08BF5FEA500E50F1000041EBA2
:10454000045170BD06F0004646EA010140EA02004F
:1045500081EA0301B4EB5C04C2BFD4EB0C0541EA71
:10456000045170BD41F480114FF0000E013C00F386
:10457000AB8014F1360FDEBF002001F0004170BDAA
:10458000C4F10004203C35DA0C341BDC04F11404C3
:10459000C4F1200500FA05F320FA04F001FA05F24F
:1045A00040EA020001F0004221F0004110EBD3701C
:1045B00021FA04F642EB06015EEA430E08BF20EA48
:1045C000D37070BDC4F10C04C4F1200500FA04F3EB
:1045D00020FA05F001FA04F240EA020001F000417D
:1045E00010EBD37041F100015EEA430E08BF20EAF0
:1045F000D37070BDC4F1200500FA05F24EEA020E38
:1046000020FA04F301FA05F243EA020321FA04F066
:1046100001F0004121FA04F220EA020000EBD3701D
:104620005EEA430E08BF20EAD37070BD94F0000F1D
:104630000FD101F00046400041EB010111F4801F51
:1046400008BF013CF7D041EA060195F0000F18BF02
:10465000704703F00046520043EB030313F4801F3E
:1046600008BF013DF7D043EA0603704794EA0C0FF8
:104670000CEA135518BF95EA0C0F0CD050EA41060E
:1046800018BF52EA4306D1D181EA030101F000418B
:104690004FF0000070BD50EA410606BF10461946B3
:1046A00052EA430619D094EA0C0F02D150EA0136BF
:1046B00013D195EA0C0F05D152EA03361CBF104600
:1046C00019460AD181EA030101F0004141F0FE419F
:1046D00041F470014FF0000070BD41F0FE4141F423
:1046E000780170BD70B54FF0FF0C4CF4E06C1CEA23
:1046F00011541DBF1CEA135594EA0C0F95EA0C0FD8
:1047000000F0A7F8A4EB050481EA030E52EA033592
:104710004FEA013100F088804FEA03334FF08055B3
:1047200045EA131343EA12634FEA022245EA1115E0
:1047300045EA10654FEA00260EF000419D4208BF91
:10474000964244F1FD0404F5407402D25B084FEA3E
:104750003202B61A65EB03055B084FEA32024FF4EA
:1047600080104FF4002CB6EB020E75EB030E22BF47
:10477000B61A754640EA0C005B084FEA3202B6EB07
:10478000020E75EB030E22BFB61A754640EA5C00B6
:104790005B084FEA3202B6EB020E75EB030E22BF46
:1047A000B61A754640EA9C005B084FEA3202B6EB47
:1047B000020E75EB030E22BFB61A754640EADC0006
:1047C00055EA060E18D04FEA051545EA16754FEA68
:1047D00006164FEAC30343EA52734FEAC2025FEA86
:1047E0001C1CC0D111F4801F0BD141EA00014FF015
:1047F00000004FF0004CB6E711F4801F04BF0143E6
:104800000020B4F1FD0C88BFBCF5E06F3FF6AFAE01
:10481000B5EB030C04BFB6EB020C5FEA500C50F191
:10482000000041EB045170BD0EF0004E4EEA113114
:1048300014EB5C04C2BFD4EB0C0541EA045170BD1B
:1048400041F480114FF0000E013C90E645EA060E5F
:104850008DE60CEA135594EA0C0F08BF95EA0C0F8D
:104860003FF43BAF94EA0C0F0AD150EA01347FF4D5
:1048700034AF95EA0C0F7FF425AF104619462CE7AC
:1048800095EA0C0F06D152EA03353FF4FDAE10460F
:10489000194622E750EA410618BF52EA43067FF460
:1048A000C5AE50EA41047FF40DAF52EA43057FF4F0
:1048B000EBAE12E74FF0FF3C06E000BF4FF0010CFB
:1048C00002E000BF4FF0010C4DF804CD4FEA410C5F
:1048D0007FEA6C5C4FEA430C18BF7FEA6C5C1BD02C
:1048E00001B050EA410C0CBF52EA430C91EA030FAD
:1048F00002BF90EA020F0020704710F1000F91EA0A
:10490000030F58BF994208BF90422CBFD8176FEAD7
:10491000E37040F0010070474FEA410C7FEA6C5CA5
:1049200002D150EA013C07D14FEA430C7FEA6C5CAC
:10493000D6D152EA033CD3D05DF8040B704700BFD8
:104940008446104662468C461946634600E000BF26
:1049500001B5FFF7B7FF002848BF10F1000F01BDF8
:104960004DF808EDFFF7F4FF0CBF012000205DF8C3
:1049700008FB00BF4DF808EDFFF7EAFF34BF012048
:1049800000205DF808FB00BF4DF808EDFFF7E0FFE1
:1049900094BF012000205DF808FB00BF4DF808ED32
:1049A000FFF7CEFF94BF012000205DF808FB00BF99
:1049B0004DF808EDFFF7C4FF34BF012000205DF87B
:1049C00008FB00BF4FEA410C7FEA6C5C02D150EA61
:1049D000013C0AD14FEA430C7FEA6C5C02D152EAF7
:1049E000033C02D14FF0000070474FF001007047C8
:1049F0004A0011D212F5001211D20DD56FF478735E
:104A0000B3EB62520ED44FEAC12343F0004343EAB2
:104A1000505323FA02F070474FF00000704750EAFD
:104A2000013002D14FF0FF3070474FF00000704767
:104A30004FEA4102B2F1E04324BFB3F5001CDCF1C0
:104A4000FE5C0DD901F0004C4FEAC0024CEA5070F8
:104A5000B2F1004F40EB830008BF20F00100704727
:104A600011F0804F21D113F13872BCBF01F000402A
:104A7000704741F480114FEA5252C2F11802C2F15C
:104A8000200C10FA0CF320FA02F018BF40F00100DD
:104A90004FEAC1234FEAD32303FA0CFC40EA0C008F
:104AA00023FA02F34FEA4303CCE77FEA625307D1CC
:104AB00050EA01331EBF4FF0FE4040F44000704703
:104AC00001F0004040F0FE4040F40000704700BF9D
:104AD00080F0004002E000BF81F0004142001FBFB3
:104AE0005FEA410392EA030F7FEA226C7FEA236CBC
:104AF0006AD04FEA1262D2EB1363C1BFD2184140B1
:104B000048404140B8BF5B42192B88BF704710F046
:104B1000004F40F4000020F07F4018BF404211F0E9
:104B2000004F41F4000121F07F4118BF494292EA51
:104B3000030F3FD0A2F1010241FA03FC10EB0C007D
:104B4000C3F1200301FA03F100F0004302D549420A
:104B500060EB4000B0F5000F13D3B0F1807F06D3B7
:104B600040084FEA310102F10102FE2A51D2B1F1AF
:104B7000004F40EBC25008BF20F0010040EA0300A4
:104B80007047490040EB000010F4000FA2F1010251
:104B9000EDD1B0FA80FCACF1080CB2EB0C0200FADB
:104BA0000CF0AABF00EBC25052421843BCBFD04029
:104BB0001843704792F0000F81F4000106BF80F4A3
:104BC00000000132013BB5E74FEA41037FEA226C66
:104BD00018BF7FEA236C21D092EA030F04D092F031
:104BE000000F08BF0846704790EA010F1CBF002065
:104BF000704712F07F4F04D1400028BF40F00040C2
:104C0000704712F100723CBF00F50000704700F0E1
:104C1000004343F0FE4040F4000070477FEA226208
:104C200016BF08467FEA23630146420206BF5FEAD9
:104C3000412390EA010F40F4800070474FF00003D9
:104C400004E000BF10F0004348BF40425FEA000CA0
:104C500008BF704743F0964301464FF000001CE048
:104C600050EA010208BF70474FF000030AE000BF9E
:104C700050EA010208BF704711F0004302D54042DC
:104C800061EB41015FEA010C02BF8446014600204E
:104C900043F0B64308BFA3F18053A3F50003BCFA69
:104CA0008CF2083AA3EBC25310DB01FA02FC634416
:104CB00000FA02FCC2F12002BCF1004F20FA02F21D
:104CC00043EB020008BF20F00100704702F1200210
:104CD00001FA02FCC2F1200250EA4C0021FA02F271
:104CE00043EB020008BF20EADC7070474FF0FF0C76
:104CF0001CEAD0521EBF1CEAD15392EA0C0F93EA71
:104D00000C0F6FD01A4480EA010C400218BF5FEA12
:104D100041211ED04FF0006343EA501043EA511185
:104D2000A0FB01310CF00040B1F5000F3EBF49007F
:104D300041EAD3715B0040EA010062F17F02FD2A83
:104D40001DD8B3F1004F40EBC25008BF20F0010066
:104D5000704790F0000F0CF0004C08BF49024CEA7D
:104D6000502040EA51207F3AC2BFD2F1FF0340EA0F
:104D7000C250704740F400004FF00003013A5DDC80
:104D800012F1190FDCBF00F000407047C2F10002C1
:104D9000410021FA02F1C2F1200200FA02FC5FEAAE
:104DA000310040F1000053EA4C0308BF20EADC70F8
:104DB000704792F0000F00F0004C02BF400010F46A
:104DC000000F013AF9D040EA0C0093F0000F01F017
:104DD000004C02BF490011F4000F013BF9D041EA39
:104DE0000C018FE70CEAD15392EA0C0F18BF93EA3B
:104DF0000C0F0AD030F0004C18BF31F0004CD8D165
:104E000080EA010000F00040704790F0000F17BFEB
:104E100090F0004F084691F0000F91F0004F14D031
:104E200092EA0C0F01D142020FD193EA0C0F03D189
:104E30004B0218BF084608D180EA010000F000408C
:104E400040F0FE4040F40000704740F0FE4040F467
:104E5000400070474FF0FF0C1CEAD0521EBF1CEA06
:104E6000D15392EA0C0F93EA0C0F69D0A2EB030224
:104E700080EA010C49024FEA402037D04FF08053BE
:104E800043EA111143EA10130CF000408B4238BF83
:104E90005B0042F17D024FF4000C8B4224BF5B1A91
:104EA00040EA0C00B3EB510F24BFA3EB510340EADF
:104EB0005C00B3EB910F24BFA3EB910340EA9C008D
:104EC000B3EBD10F24BFA3EBD10340EADC001B01FD
:104ED00018BF5FEA1C1CE0D1FD2A3FF650AF8B42A1
:104EE00040EBC25008BF20F0010070470CF0004CAE
:104EF0004CEA50207F32C2BFD2F1FF0340EAC250D9
:104F0000704740F400004FF00003013A37E792F099
:104F1000000F00F0004C02BF400010F4000F013AF7
:104F2000F9D040EA0C0093F0000F01F0004C02BFF2
:104F3000490011F4000F013BF9D041EA0C0195E75B
:104F40000CEAD15392EA0C0F08D142027FF47DAFF4
:104F500093EA0C0F7FF470AF084676E793EA0C0FE4
:104F600004D14B023FF44CAF08466EE730F0004CE2
:104F700018BF31F0004CCAD130F000427FF45CAF72
:104F800031F000437FF43CAF5FE700BF4FF0FF3CE0
:104F900006E000BF4FF0010C02E000BF4FF0010C33
:104FA0004DF804CD4FEA40024FEA41037FEA226CFC
:104FB00018BF7FEA236C11D001B052EA530C18BF1E
:104FC00090EA010F58BFB2EB030088BFC81738BF83
:104FD0006FEAE17018BF40F0010070477FEA226C71
:104FE00002D15FEA402C05D17FEA236CE4D15FEA6D
:104FF000412CE1D05DF8040B704700BF84460846A1
:105000006146FFE70FB5FFF7C9FF002848BF10F161
:10501000000F0FBD4DF808EDFFF7F4FF0CBF0120A6
:1050200000205DF808FB00BF4DF808EDFFF7EAFF30
:1050300034BF012000205DF808FB00BF4DF808EDEB
:10504000FFF7E0FF94BF012000205DF808FB00BFE0
:105050004DF808EDFFF7D2FF94BF012000205DF866
:1050600008FB00BF4DF808EDFFF7C8FF34BF012073
:1050700000205DF808FB00BF4FEA40024FEA410301
:105080007FEA226C02D15FEA402C08D17FEA236CD0
:1050900002D15FEA412C02D14FF0000070474FF07F
:1050A0000100704742000ED2B2F1FE4F0BD34FF019
:1050B0009E03B3EB126209D44FEA002343F000438E
:1050C00023FA02F070474FF00000704712F1610FB1
:1050D00001D1420202D14FF0FF3070474FF0000083
:1050E000704700BF002101F0C5BE00BF13460A464D
:1050F0000146022001F058BFF0B583B016461F46A6
:105100000D460024FFF770F9009733462A460194B4
:1051100001F0ACFF03B0F0BD014B1868704700BF51
:10512000688CFF1F70B50F4E0F4D761BB61018BF61
:10513000002405D0013455F8043B9847A642F9D124
:105140000A4E0B4D761B05F0F7FAB61018BF002477
:1051500006D0013455F8043B9847A642F9D170BDFA
:1051600070BD00BF44A7000044A7000050A7000086
:1051700044A70000931E222B10D80A2A10B506D08F
:1051800000230C46194401F0C1FE204610BD002842
:10519000F6DA2D230B7040420123F2E7002008705D
:1051A000704700BFFFF7E6BF024B0146186800F0EA
:1051B0000BB800BF688CFF1F024B0146186802F055
:1051C0002DB800BF688CFF1F2DE9F04F01F10B05D2
:1051D000162D83B0064640F29F8035F0070500F19A
:1051E000BF80A94200F2BC8000F06EFBB5F5FC7FE9
:1051F000C0F09C826B0A00F0BA80042B00F283811D
:10520000A80900F1390E4FEA4E033830C44F07EBBE
:105210008303A3F108015C68A14207D1ACE0002A36
:1052200080F2AC80E468A14200F0A680636823F0BD
:1052300003035A1B0F2AF2DDB9493C6901F1080E3C
:10524000744500F0B381636823F003035A1B0F2AEF
:1052500000F39981002AC1F814E0C1F810E080F24F
:105260009E80B3F5007F80F06781DB0803F1010CBD
:1052700001229B1002FA03F34A6851F83C80C4F8FB
:10528000088001EBCC091A43A9F10803E3604A60E6
:1052900041F83C40C8F80C40831001249C409442E3
:1052A00000F28A80144206D120F003006400144208
:1052B00000F10400FAD007EBC009CC468046DCF8C8
:1052C0000C108C4507D173E1002A80F28181C968F6
:1052D0008C4500F06D814B6823F003035A1B0F2AA5
:1052E000F2DD0C46D1F80CC054F8088F4B1945F08C
:1052F00001054D6042F00101C8F80CC03046CCF801
:1053000008807B613B61C3F80CE0C3F808E059609A
:105310009A5000F0DBFA1FE0102921D800F0D4FAEF
:105320001025062302207E4F07EB8303A3F108021A
:105330005C68944200F045816368E168A56823F0E9
:105340000303234430465A68E96042F001028D604D
:105350005A6000F0BBFA0834204603B0BDE8F08F75
:1053600000240C232046336003B0BDE8F08F802377
:105370004FF0400E3F2049E770465DE72344E16867
:105380005A68A56842F00102E96030468D605A60B3
:1053900000F09CFA0834204603B0BDE8F08F2344A7
:1053A00030465A6842F001025A6000F08FFA083421
:1053B000204603B0BDE8F08FBC68636823F00308A3
:1053C000A84504D3C5EB08030F2B00F38C80554B85
:1053D000DFF860911A68D9F8003001332A4404EBF1
:1053E000080A00F0608102F580520F3222F47F62D9
:1053F00022F00F0211463046019200F061FCB0F13C
:10540000FF3F8346019A00F05881824500F2FC80FC
:10541000454B1968DA451144196000F05381D9F8F9
:105420000000DFF810E101301BBFCAEB0B0A51444A
:10543000CEF800B019601BF0070100F01781C1F130
:105440000800C1F58051834408315A44C2F30B026D
:10545000C2EB010949463046019300F031FC431C80
:10546000019B00F03F81CBEB00024A4442F0010275
:105470001968C7F808B04944BC42CBF80420196049
:10548000DFF8A49016D0B8F10F0F40F2FD806268EB
:10549000A8F10C0323F00703E01802F001024FF01B
:1054A000050E1A430F2B6260C0F804E0C0F808E054
:1054B00000F21C811D4BBC681A68914288BF1960BC
:1054C0001B4B1A689142626888BF196022F0030280
:1054D0009542A2EB050301D80F2B04DC304600F007
:1054E000F5F9002438E7621943F0010345F001059E
:1054F00065603046BA60536000F0E8F90834204631
:1055000003B0BDE8F08F142B71D9542B00F2A480A6
:10551000280B00F16F0E4FEA4E036E3076E600BFA7
:10552000D88DFF1F6896FF1F6C96FF1F6496FF1FA4
:105530006096FF1FE491FF1F5A0A042A5ED9142ABD
:1055400000F2B38002F15C0149005B3207EB810C91
:1055500057F82110DFF8DC81ACF1080C8C4500F025
:1055600088804A6822F00302934202D289688C45FF
:10557000F7D1D1F80CC07A68C4F80CC0A160CCF89F
:105580000840CC6088E6631942F0010745F0010548
:10559000656030464B610B61C3F80CE0C3F808E06E
:1055A0005F609A50083400F091F9D5E64A6873E6D6
:1055B00008F1010818F0030F0CF1080C7FF47FAE1E
:1055C00030E0DC68A34208BF02303FF435AEB3E6FA
:1055D0000B440C465A68C96854F8085F42F001024F
:1055E0005A603046E9608D6000F070F9B4E603F16E
:1055F0005C0E03F15B004FEA4E0307E69A0902F1E5
:10560000390149003832A1E7BC424A4B3FF400AFB0
:105610009C68626822F003025AE759F808399945F4
:1056200040F0828010F0030F00F1FF30F5D17B686D
:1056300023EA04037B6064009C423FF6BDAE002C6D
:105640003FF4BAAE1C4240467FF435AE64001C42C3
:1056500000F10400FAD02EE6B3F5AA7F18D8E80BC3
:1056600000F1780E4FEA4E037730CFE54FF48051CA
:10567000EBE60121D8F80430921001FA02F21A4345
:10568000C8F80420614677E70123CBF8043025E70A
:1056900040F25452934220D8A80C00F17D0E4FEAFC
:1056A0004E037C30B2E51032A4E6542A26D81A0BF9
:1056B00002F16F0149006E3248E7BC68626822F06F
:1056C000030205E7CAF30B0000287FF4A8AE4244AA
:1056D000BB6842F001025A60ECE6FE234FF07F0EF9
:1056E0007E2093E501224FF00009C1E604F1080194
:1056F000304601F093FDD9F80010DBE6B2F5AA7F41
:1057000005D8DA0B02F17801490077321EE740F242
:1057100054518A4205D89A0C02F17D0149007C322D
:1057200014E7FE217E2211E77B6884E7E808431C2A
:105730005B00F8E5D88DFF1F82B049B15AB16BB15B
:1057400013780B601278101C18BF012002B070474C
:1057500001A9002AF3D1104602B070476FF0010092
:10576000F4E700BF8842F0B50DD98B1898420AD2F1
:105770008118002A51D09A1A13F8014D01F8014DF1
:105780009342F9D1F0BD0F2A48D941EA00039B07A3
:1057900046D100F1100401F11003154653F8106CC6
:1057A00044F8106C53F80C6C44F80C6C53F8086C0B
:1057B00044F8086C103D53F8046C44F8046C0F2D49
:1057C00003F1100304F11004E8D8A2F1100323F050
:1057D0000F0302F00F0E1033BEF1030F1944034400
:1057E00021D91E1F0D467446043C55F8047B46F82B
:1057F000047F032CF8D8AEF1040424F0030404342D
:105800002344214402F0030262B1013B0A4411F82F
:10581000014B03F8014F8A42F9D1F0BD0346F3E78B
:105820000346F2E7F0BD7246EEE700BF70B48407AE
:1058300046D0541E002A41D0CDB2034602E0621E7B
:10584000E4B3144603F8015B9A07F8D1032C2ED970
:10585000CDB245EA05250F2C45EA054519D903F1D6
:1058600010022646103E0F2E42F8105C42F80C5CE7
:1058700042F8085C42F8045C02F11002F2D8A4F18C
:10588000100222F00F0204F00F041032032C134414
:105890000DD91E462246043A032A46F8045BFAD87C
:1058A000221F22F003020432134404F003042CB13B
:1058B000C9B21C4403F8011BA342FBD170BC704762
:1058C00014460346C2E700BF704700BF704700BFE1
:1058D000024B0A460146186800F002B8688CFF1FA8
:1058E0002DE9F04F174683B0002900F0C1800E4625
:1058F000814607F10B05FFF7E7FF56F804EC162D7C
:105900002EF00304A6F1080840D810221546AF4235
:1059100041D8944275DAC94B996808EB0400884273
:10592000416800F0D98021F0010303445B68DB0784
:105930007DD51EF0010F35D039464846FFF744FCAF
:105940000746E0B156F8043C23F001034344A0F1BC
:1059500008029A4200F04481221F242A00F2318179
:10596000132A00F204810346324611681960516817
:10597000596092689A603146484601F04FFC4846AB
:10598000FFF7A4FF384603B0BDE8F08F25F0070508
:10599000002D2A46BBDA0C230020C9F8003003B0E2
:1059A000BDE8F08F56F8083CC3EB080ADAF804307B
:1059B00023F0030C04EB0C039342BDDB5746DAF8EB
:1059C0000C1057F8080F221F242AC160886000F2CB
:1059D0001781132A40F212813168CAF808107168E1
:1059E000CAF80C101B2A00F22B8108360AF11002AB
:1059F0003168116071685160B16891603E461C4623
:105A0000D046631B0F2B1DD8D8F8043003F00103D8
:105A100023434444C8F80430636843F001036360DF
:105A20004846FFF753FF304603B0BDE8F08F21F042
:105A300003012144914221DBC36882680C46D36094
:105A40009A60DEE7D8F8042008EB050102F00102B5
:105A5000154343F001020B44C8F804504A605A68E9
:105A600042F0010208315A60484601F0D7FBD7E7FF
:105A7000114603B0BDE8F04FFFF7A6BB1EF0010FC3
:105A80007FF45AAF56F8083CC3EB080ADAF8043042
:105A900023F0030C01EB0C0E96458BDBC368826888
:105AA0005746D3609A6057F8081FDAF80C30CB607D
:105AB000221F242A996000F29980132A62D9336840
:105AC000CAF808307368CAF80C301B2A00F2A080AC
:105AD00008360AF1100356E021F0030BA34405F148
